:100000000C9434000C9446000C9446000C9446006A
:100010000C9446000C9446000C9446000C94460048
:100020000C9446000C9446000C9446000C94460038
:100030000C9446000C9446000C9446000C94460028
:100040000C9446000C9446000C9446000C94460018
:100050000C9446000C9446000C9446000C94460008
:100060000C9446000C94460011241FBECFEFD8E03C
:10007000DEBFCDBF21E0A0E0B1E001C01D92A630FF
:10008000B207E1F70E9455010C9400060C940000A1
:100090008F929F92AF92BF92CF92DF92EF92FF9298
:1000A0004B015C0169017A018AB180628AB984B529
:1000B000836284BD85B58C6085BDC501B4010E9495
:1000C000AD0467BD20E030E040E05FE3C501B4016E
:1000D0000E9493050E94AD0468BD6091000170917B
:1000E0000101072E000C880B990B0E94DE049B0176
:1000F000AC0160E070E080E792E40E943B04A7015D
:1001000096010E94930520E030E040E850E40E9410
:10011000930520E030E04AE754E40E9493056B0128
:100120007C0160930201709303018093040190931A
:10013000050120E030E04AE755E40E9493054B01B9
:100140005C0120E030E040E85FE30E943604882351
:1001500024F120E03FEF4FE757E4C501B4010E94CE
:100160008E051816ACF420E030E040E251E4C701FF
:10017000B6010E9493050E94AD0406C080E991E09B
:100180000197F1F76150710961157105B9F70AC05E
:10019000C501B4010E94AD0402C061E070E0CB0172
:1001A0000197F1F78AB11AB880E49CE90197F1F759
:1001B000FF90EF90DF90CF90BF90AF909F908F9087
:1001C00008958F929F92AF92BF92CF92DF92EF925B
:1001D000FF926B017C018AB11AB8609100017091A5
:1001E0000101072E000C880B990B0E94DE049B0175
:1001F000AC0160E070E080E792E40E943B04A7015C
:1002000096010E94930520E030E04AE754E40E9402
:1002100093056B017C01609302017093030180934D
:1002200004019093050120E030E04AE755E40E9484
:1002300093054B015C0120E030E040E85FE30E9461
:100240003604882324F120E03FEF4FE757E4C5014F
:10025000B4010E948E051816ACF420E030E040E2B4
:1002600051E4C701B6010E9493050E94AD0406C087
:1002700080E991E00197F1F761507109611571050D
:10028000B9F70AC0C501B4010E94AD0402C061E023
:1002900070E0CB010197F1F7FF90EF90DF90CF90E6
:1002A000BF90AF909F908F90089584E690E09093D8
:1002B00001018093000160E070E080E89FE30E940C
:1002C000E10060E070E080E09EE30E94E10020E059
:1002D00030E040E05EE36FE27BE78FED92E40E9466
:1002E000480020E030E040E05EE362E07CE98BEB38
:1002F00092E40E94480020E030E040E05EE36FE2DC
:100300007BE78FED92E40E94480020E030E040EC73
:100310005EE364ED7BEE86EA92E40E94480020E012
:1003200030E040EC5EE363EA7BE08CE892E40E941C
:10033000480020E030E040E45FE367EE7DE784E9D9
:1003400092E40E94480060E070E080E09EE30E943A
:10035000E10020E030E040E05EE36FE27BE78FED1C
:1003600092E40E94480020E030E040E05EE362E07A
:100370007CE98BEB92E40E94480020E030E040E012
:100380005EE36FE27BE78FED92E40E94480020E09D
:1003900030E040EC5EE363EA7BE08CE892E40E94AC
:1003A000480020E030E040EC5EE367EE7DE784E962
:1003B00092E40E94480020E030E040E45FE362E025
:1003C0007CE98BEB92E40E94480060E070E080E002
:1003D0009EE30E94E10020E030E040E05EE36FE257
:1003E0007BE78FED92E40E94480020E030E040E09F
:1003F0005EE362E07CE98BEB92E40E94480020E03F
:1004000030E040E05EE36FE27BE78FED92E40E9434
:10041000480020E030E040EC5EE364ED7BEE86EAED
:1004200092E40E94480020E030E040EC5EE363EAA2
:100430007BE08CE892E40E94480020E030E040E459
:100440005FE367EE7DE784E992E40E94480060E0A4
:1004500070E080E09EE30E94E10020E030E040E0B8
:100460005EE36FE27BE78FED92E40E94480020E0BC
:1004700030E040E05EE362E07CE98BEB92E40E94D6
:10048000480020E030E040E05EE36FE27BE78FED84
:1004900092E40E94480020E030E040EC5EE363EA32
:1004A0007BE08CE892E40E94480020E030E040ECE1
:1004B0005EE367EE7DE784E992E40E94480020E075
:1004C00030E040E45FE362E07CE98BEB92E40E9481
:1004D000480060E070E080E09EE30E94E10020E0E0
:1004E00030E040E05EE36AE67CEE87E293E40E945F
:1004F000480020E030E040E05EE36FE27BE78FED14
:1005000092E40E94480020E030E040E05EE36FE2C9
:100510007BE78FED92E40E94480020E030E040E06D
:100520005EE36FE27BE78FED92E40E94480020E0FB
:1005300030E040E05EE36FE27BE78FED92E40E9403
:10054000480020E030E040E05EE369ED73ED82EDCD
:1005500092E40E94480020E030E040E85EE36FE271
:100560007BE78FED92E40E94480020E030E040E01D
:100570005EE36FE27BE78FED92E40E94480020E0AB
:1005800030E040E05EE361E179E18BEF92E40E94CC
:10059000480020E030E040EC5EE360E070E08DE099
:1005A00093E40E94480060E070E080E89EE30E94CF
:1005B000E10020E030E040E05EE36FE27BE78FEDBA
:1005C00092E40E94480020E030E040E05EE36FE209
:1005D0007BE78FED92E40E94480020E030E040E0AD
:1005E0005EE360E070E08DE093E40E94480020E06C
:1005F00030E040E85EE361E179E18BEF92E40E9454
:10060000480020E030E040E85EE360E070E08DE02C
:1006100093E40E94480020E030E040E05EE365E4BF
:100620007BE98CE393E40E94480020E030E040E066
:100630005EE36FE27BE78FED92E40E94480020E0EA
:1006400030E040E05EE36FE27BE78FED92E40E94F2
:10065000480020E030E040E05EE360E070E08DE0E4
:1006600093E40E94480020E030E040E85EE361E16E
:1006700079E18BEF92E40E94480020E030E040EC0A
:100680005EE360E070E08DE093E40E94480060E08B
:1006900070E080E89EE30E94E10020E030E040E06E
:1006A0005EE36FE27BE78FED92E40E94480020E07A
:1006B00030E040E05EE36FE27BE78FED92E40E9482
:1006C000480020E030E040E05EE36FE27BE78FED42
:1006D00092E40E94480020E030E040E05EE36FE2F8
:1006E0007BE78FED92E40E94480020E030E040E09C
:1006F0005EE369ED73ED82ED92E40E94480020E034
:1007000030E040E85EE36FE27BE78FED92E40E9429
:10071000480020E030E040E05EE36FE27BE78FEDF1
:1007200092E40E94480020E030E040E05EE361E1B6
:1007300079E18BEF92E40E94480020E030E040EC49
:100740005EE360E070E08DE093E40E94480060E0CA
:1007500070E080E09EE30E94E10020E030E040E0B5
:100760005EE360E070E08DE093E40E94480020E0EA
:1007700030E040E05EE36FE27BE78FED92E40E94C1
:10078000480020E030E040E05EE36FE27BE78FED81
:1007900092E40E94480020E030E040E05EE361E146
:1007A00079E18BEF92E40E94480020E030E040E8DD
:1007B0005EE360E070E08DE093E40E94480020E09A
:1007C00030E040E85EE361E179E18BEF92E40E9482
:1007D000480020E030E040E05EE365E47BE98CE344
:1007E00093E40E94480020E030E040E05EE36FE2E6
:1007F0007BE78FED92E40E94480020E030E040E883
:100800005EE361E179E18BEF92E40E94480020E031
:1008100030E040E85EE360E070E08DE093E40E9449
:10082000480020E030E040E85EE361E179E18BEFF1
:1008300092E40E94480020E030E040E05EE361E1A5
:1008400079E18BEF92E40E94480020E030E040E83C
:100850005FE36FE27BE78FED92E40E94480060E087
:1008600070E080E490E40E94E1001FCD0E94190531
:1008700008F481E008950E944F040C9454050E94EE
:100880004D0558F00E94460540F029F45F3F29F0DD
:100890000C943D0551110C9488050C9443050E945D
:1008A000650568F39923B1F3552391F3951B550B17
:1008B000BB27AA2762177307840738F09F5F5F4F33
:1008C000220F331F441FAA1FA9F335D00E2E3AF072
:1008D000E0E832D091505040E695001CCAF72BD08A
:1008E000FE2F29D0660F771F881FBB1F26173707DB
:1008F0004807AB07B0E809F0BB0B802DBF01FF270D
:1009000093585F4F3AF09E3F510578F00C943D05A7
:100910000C9488055F3FE4F3983ED4F38695779571
:100920006795B795F7959F5FC9F7880F911D9695C5
:10093000879597F90895E1E0660F771F881FBB1F21
:10094000621773078407BA0720F0621B730B840BCE
:10095000BA0BEE1F88F7E09508950E946D0588F0A8
:100960009F5798F0B92F9927B751B0F0E1F0660F73
:10097000771F881F991F1AF0BA95C9F714C0B130B4
:1009800091F00E948705B1E008950C948705672FC8
:10099000782F8827B85F39F0B93FCCF386957795E3
:1009A0006795B395D9F73EF49095809570956195CC
:1009B0007F4F8F4F9F4F0895E89409C097FB3EF4F7
:1009C00090958095709561957F4F8F4F9F4F99239C
:1009D000A9F0F92F96E9BB279395F695879577951A
:1009E0006795B795F111F8CFFAF4BB0F11F460FFDA
:1009F0001BC06F5F7F4F8F4F9F4F16C0882311F032
:100A000096E911C0772321F09EE8872F762F05C045
:100A1000662371F096E8862F70E060E02AF09A95E0
:100A2000660F771F881FDAF7880F9695879597F9D5
:100A30000895990F0008550FAA0BE0E8FEEF16166F
:100A40001706E807F907C0F012161306E407F507C2
:100A500098F0621B730B840B950B39F40A2661F036
:100A6000232B242B252B21F408950A2609F4A140D9
:100A7000A6958FEF811D811D089597F99F6780E8E6
:100A800070E060E008959FEF80EC089500240A94E0
:100A90001616170618060906089500240A94121659
:100AA0001306140605060895092E0394000C11F48C
:100AB000882352F0BB0F40F4BF2B11F460FF04C039
:100AC0006F5F7F4F8F4F9F4F089557FD9058440F92
:100AD000551F59F05F3F71F04795880F97FB991F9D
:100AE00061F09F3F79F0879508951216130614065A
:100AF000551FF2CF4695F1DF08C0161617061806E7
:100B0000991FF1CF86957105610508940895E894C1
:100B1000BB2766277727CB0197F908950E9419050F
:100B200008F48FEF08950E94A6050C9454050E94C6
:100B3000460538F00E944D0520F0952311F00C94E5
:100B40003D050C94430511240C9488050E9465050D
:100B500070F3959FC1F3950F50E0551F629FF00110
:100B6000729FBB27F00DB11D639FAA27F00DB11D29
:100B7000AA1F649F6627B00DA11D661F829F2227B2
:100B8000B00DA11D621F739FB00DA11D621F839F39
:100B9000A00D611D221F749F3327A00D611D231F0F
:100BA000849F600D211D822F762F6A2F11249F575D
:100BB00050409AF0F1F088234AF0EE0FFF1FBB1F60
:100BC000661F771F881F91505040A9F79E3F51051F
:100BD00080F00C943D050C9488055F3FE4F3983E4B
:100BE000D4F3869577956795B795F795E7959F5FC9
:100BF000C1F7FE2B880F911D9695879597F908955B
:040C0000F894FFCF96
:00000001FF
